:020000000A28CC
:10000800FE00030EF2000A08F30027280B28F0016F
:10001800F10183013F280F30831603138500860101
:100028000730831203139F00850186018B178B16F7
:100038008316031381128111011081140115831293
:100048000313810108000B1D2A282B2836288B133F
:100058008B120B11831203130508860081018B177D
:100068008B163828F001F10173088A00720E83009C
:0C007800FE0E7E0E09000F2040280A2812
:02400E00183F59
:00000001FF
